{
    "contractName": "BasicERC721A",
    "abi": [
        {
            "inputs": [],
            "stateMutability": "nonpayable",
            "type": "constructor"
        },
        {
            "inputs": [],
            "name": "ApprovalCallerNotOwnerNorApproved",
            "type": "error"
        },
        {
            "inputs": [],
            "name": "ApprovalQueryForNonexistentToken",
            "type": "error"
        },
        {
            "inputs": [],
            "name": "BalanceQueryForZeroAddress",
            "type": "error"
        },
        {
            "inputs": [],
            "name": "MintERC2309QuantityExceedsLimit",
            "type": "error"
        },
        {
            "inputs": [],
            "name": "MintToZeroAddress",
            "type": "error"
        },
        {
            "inputs": [],
            "name": "MintZeroQuantity",
            "type": "error"
        },
        {
            "inputs": [],
            "name": "NotCompatibleWithSpotMints",
            "type": "error"
        },
        {
            "inputs": [],
            "name": "OwnerQueryForNonexistentToken",
            "type": "error"
        },
        {
            "inputs": [],
            "name": "OwnershipNotInitializedForExtraData",
            "type": "error"
        },
        {
            "inputs": [],
            "name": "SequentialMintExceedsLimit",
            "type": "error"
        },
        {
            "inputs": [],
            "name": "SequentialUpToTooSmall",
            "type": "error"
        },
        {
            "inputs": [],
            "name": "SpotMintTokenIdTooSmall",
            "type": "error"
        },
        {
            "inputs": [],
            "name": "TokenAlreadyExists",
            "type": "error"
        },
        {
            "inputs": [],
            "name": "TransferCallerNotOwnerNorApproved",
            "type": "error"
        },
        {
            "inputs": [],
            "name": "TransferFromIncorrectOwner",
            "type": "error"
        },
        {
            "inputs": [],
            "name": "TransferToNonERC721ReceiverImplementer",
            "type": "error"
        },
        {
            "inputs": [],
            "name": "TransferToZeroAddress",
            "type": "error"
        },
        {
            "inputs": [],
            "name": "URIQueryForNonexistentToken",
            "type": "error"
        },
        {
            "anonymous": false,
            "inputs": [
                {
                    "indexed": true,
                    "internalType": "address",
                    "name": "owner",
                    "type": "address"
                },
                {
                    "indexed": true,
                    "internalType": "address",
                    "name": "approved",
                    "type": "address"
                },
                {
                    "indexed": true,
                    "internalType": "uint256",
                    "name": "tokenId",
                    "type": "uint256"
                }
            ],
            "name": "Approval",
            "type": "event"
        },
        {
            "anonymous": false,
            "inputs": [
                {
                    "indexed": true,
                    "internalType": "address",
                    "name": "owner",
                    "type": "address"
                },
                {
                    "indexed": true,
                    "internalType": "address",
                    "name": "operator",
                    "type": "address"
                },
                {
                    "indexed": false,
                    "internalType": "bool",
                    "name": "approved",
                    "type": "bool"
                }
            ],
            "name": "ApprovalForAll",
            "type": "event"
        },
        {
            "anonymous": false,
            "inputs": [
                {
                    "indexed": true,
                    "internalType": "uint256",
                    "name": "fromTokenId",
                    "type": "uint256"
                },
                {
                    "indexed": false,
                    "internalType": "uint256",
                    "name": "toTokenId",
                    "type": "uint256"
                },
                {
                    "indexed": true,
                    "internalType": "address",
                    "name": "from",
                    "type": "address"
                },
                {
                    "indexed": true,
                    "internalType": "address",
                    "name": "to",
                    "type": "address"
                }
            ],
            "name": "ConsecutiveTransfer",
            "type": "event"
        },
        {
            "anonymous": false,
            "inputs": [
                {
                    "indexed": true,
                    "internalType": "address",
                    "name": "from",
                    "type": "address"
                },
                {
                    "indexed": true,
                    "internalType": "address",
                    "name": "to",
                    "type": "address"
                },
                {
                    "indexed": true,
                    "internalType": "uint256",
                    "name": "tokenId",
                    "type": "uint256"
                }
            ],
            "name": "Transfer",
            "type": "event"
        },
        {
            "inputs": [
                {
                    "internalType": "address",
                    "name": "to",
                    "type": "address"
                },
                {
                    "internalType": "uint256",
                    "name": "tokenId",
                    "type": "uint256"
                }
            ],
            "name": "approve",
            "outputs": [],
            "stateMutability": "payable",
            "type": "function"
        },
        {
            "inputs": [
                {
                    "internalType": "address",
                    "name": "owner",
                    "type": "address"
                }
            ],
            "name": "balanceOf",
            "outputs": [
                {
                    "internalType": "uint256",
                    "name": "",
                    "type": "uint256"
                }
            ],
            "stateMutability": "view",
            "type": "function"
        },
        {
            "inputs": [
                {
                    "internalType": "uint256",
                    "name": "tokenId",
                    "type": "uint256"
                }
            ],
            "name": "getApproved",
            "outputs": [
                {
                    "internalType": "address",
                    "name": "",
                    "type": "address"
                }
            ],
            "stateMutability": "view",
            "type": "function"
        },
        {
            "inputs": [
                {
                    "internalType": "address",
                    "name": "owner",
                    "type": "address"
                },
                {
                    "internalType": "address",
                    "name": "operator",
                    "type": "address"
                }
            ],
            "name": "isApprovedForAll",
            "outputs": [
                {
                    "internalType": "bool",
                    "name": "",
                    "type": "bool"
                }
            ],
            "stateMutability": "view",
            "type": "function"
        },
        {
            "inputs": [
                {
                    "internalType": "uint256",
                    "name": "quantity",
                    "type": "uint256"
                }
            ],
            "name": "mint",
            "outputs": [],
            "stateMutability": "payable",
            "type": "function"
        },
        {
            "inputs": [],
            "name": "name",
            "outputs": [
                {
                    "internalType": "string",
                    "name": "",
                    "type": "string"
                }
            ],
            "stateMutability": "view",
            "type": "function"
        },
        {
            "inputs": [
                {
                    "internalType": "uint256",
                    "name": "tokenId",
                    "type": "uint256"
                }
            ],
            "name": "ownerOf",
            "outputs": [
                {
                    "internalType": "address",
                    "name": "",
                    "type": "address"
                }
            ],
            "stateMutability": "view",
            "type": "function"
        },
        {
            "inputs": [
                {
                    "internalType": "address",
                    "name": "from",
                    "type": "address"
                },
                {
                    "internalType": "address",
                    "name": "to",
                    "type": "address"
                },
                {
                    "internalType": "uint256",
                    "name": "tokenId",
                    "type": "uint256"
                }
            ],
            "name": "safeTransferFrom",
            "outputs": [],
            "stateMutability": "payable",
            "type": "function"
        },
        {
            "inputs": [
                {
                    "internalType": "address",
                    "name": "from",
                    "type": "address"
                },
                {
                    "internalType": "address",
                    "name": "to",
                    "type": "address"
                },
                {
                    "internalType": "uint256",
                    "name": "tokenId",
                    "type": "uint256"
                },
                {
                    "internalType": "bytes",
                    "name": "_data",
                    "type": "bytes"
                }
            ],
            "name": "safeTransferFrom",
            "outputs": [],
            "stateMutability": "payable",
            "type": "function"
        },
        {
            "inputs": [
                {
                    "internalType": "address",
                    "name": "operator",
                    "type": "address"
                },
                {
                    "internalType": "bool",
                    "name": "approved",
                    "type": "bool"
                }
            ],
            "name": "setApprovalForAll",
            "outputs": [],
            "stateMutability": "nonpayable",
            "type": "function"
        },
        {
            "inputs": [
                {
                    "internalType": "bytes4",
                    "name": "interfaceId",
                    "type": "bytes4"
                }
            ],
            "name": "supportsInterface",
            "outputs": [
                {
                    "internalType": "bool",
                    "name": "",
                    "type": "bool"
                }
            ],
            "stateMutability": "view",
            "type": "function"
        },
        {
            "inputs": [],
            "name": "symbol",
            "outputs": [
                {
                    "internalType": "string",
                    "name": "",
                    "type": "string"
                }
            ],
            "stateMutability": "view",
            "type": "function"
        },
        {
            "inputs": [
                {
                    "internalType": "uint256",
                    "name": "tokenId",
                    "type": "uint256"
                }
            ],
            "name": "tokenURI",
            "outputs": [
                {
                    "internalType": "string",
                    "name": "",
                    "type": "string"
                }
            ],
            "stateMutability": "view",
            "type": "function"
        },
        {
            "inputs": [],
            "name": "totalSupply",
            "outputs": [
                {
                    "internalType": "uint256",
                    "name": "result",
                    "type": "uint256"
                }
            ],
            "stateMutability": "view",
            "type": "function"
        },
        {
            "inputs": [
                {
                    "internalType": "address",
                    "name": "from",
                    "type": "address"
                },
                {
                    "internalType": "address",
                    "name": "to",
                    "type": "address"
                },
                {
                    "internalType": "uint256",
                    "name": "tokenId",
                    "type": "uint256"
                }
            ],
            "name": "transferFrom",
            "outputs": [],
            "stateMutability": "payable",
            "type": "function"
        }
    ],
    "bytecode": "608060405234801562000010575f80fd5b506040518060400160405280600c81526020016b42617369634552433732314160a01b81525060405180604001604052806005815260200164423732314160d81b81525081600290816200006591906200011e565b5060036200007482826200011e565b50505f805550620001ea565b634e487b7160e01b5f52604160045260245ffd5b600181811c90821680620000a957607f821691505b602082108103620000c857634e487b7160e01b5f52602260045260245ffd5b50919050565b601f8211156200011957805f5260205f20601f840160051c81016020851015620000f55750805b601f840160051c820191505b8181101562000116575f815560010162000101565b50505b505050565b81516001600160401b038111156200013a576200013a62000080565b62000152816200014b845462000094565b84620000ce565b602080601f83116001811462000188575f8415620001705750858301515b5f19600386901b1c1916600185901b178555620001e2565b5f85815260208120601f198616915b82811015620001b85788860151825594840194600190910190840162000197565b5085821015620001d657878501515f19600388901b60f8161c191681555b505060018460011b0185555b505050505050565b610dfc80620001f85f395ff3fe6080604052600436106100e4575f3560e01c80636352211e11610087578063a22cb46511610057578063a22cb46514610235578063b88d4fde14610254578063c87b56dd14610267578063e985e9c514610286575f80fd5b80636352211e146101d057806370a08231146101ef57806395d89b411461020e578063a0712d6814610222575f80fd5b8063095ea7b3116100c2578063095ea7b31461017457806318160ddd1461018957806323b872dd146101aa57806342842e0e146101bd575f80fd5b806301ffc9a7146100e857806306fdde031461011c578063081812fc1461013d575b5f80fd5b3480156100f3575f80fd5b50610107610102366004610a74565b6102cd565b60405190151581526020015b60405180910390f35b348015610127575f80fd5b5061013061031e565b6040516101139190610adc565b348015610148575f80fd5b5061015c610157366004610aee565b6103ae565b6040516001600160a01b039091168152602001610113565b610187610182366004610b1b565b6103e7565b005b348015610194575f80fd5b506001545f54035b604051908152602001610113565b6101876101b8366004610b43565b6103f7565b6101876101cb366004610b43565b610551565b3480156101db575f80fd5b5061015c6101ea366004610aee565b610570565b3480156101fa575f80fd5b5061019c610209366004610b7c565b61057a565b348015610219575f80fd5b506101306105be565b610187610230366004610aee565b6105cd565b348015610240575f80fd5b5061018761024f366004610b95565b6105da565b610187610262366004610be2565b610645565b348015610272575f80fd5b50610130610281366004610aee565b610686565b348015610291575f80fd5b506101076102a0366004610cb7565b6001600160a01b039182165f90815260076020908152604080832093909416825291909152205460ff1690565b5f6301ffc9a760e01b6001600160e01b0319831614806102fd57506380ac58cd60e01b6001600160e01b03198316145b806103185750635b5e139f60e01b6001600160e01b03198316145b92915050565b60606002805461032d90610ce8565b80601f016020809104026020016040519081016040528092919081815260200182805461035990610ce8565b80156103a45780601f1061037b576101008083540402835291602001916103a4565b820191905f5260205f20905b81548152906001019060200180831161038757829003601f168201915b5050505050905090565b5f6103b88261070a565b6103cc576103cc6333d1c03960e21b61074c565b505f908152600660205260409020546001600160a01b031690565b6103f382826001610754565b5050565b5f610401826107f5565b6001600160a01b0394851694909150811684146104275761042762a1148160e81b61074c565b5f8281526006602052604090208054338082146001600160a01b0388169091141761046a5761045686336102a0565b61046a5761046a632ce44b5f60e11b61074c565b8015610474575f82555b6001600160a01b038681165f9081526005602052604080822080545f19019055918716808252919020805460010190554260a01b17600160e11b175f85815260046020526040812091909155600160e11b8416900361050057600184015f8181526004602052604081205490036104fe575f5481146104fe575f8181526004602052604090208490555b505b6001600160a01b0385168481887fddf252ad1be2c89b69c2b068fc378daa952ba7f163c4a11628f55a4df523b3ef5f80a4805f0361054857610548633a954ecd60e21b61074c565b50505050505050565b61056b83838360405180602001604052805f815250610645565b505050565b5f610318826107f5565b5f6001600160a01b038216610599576105996323d3ad8160e21b61074c565b506001600160a01b03165f9081526005602052604090205467ffffffffffffffff1690565b60606003805461032d90610ce8565b6105d73382610884565b50565b335f8181526007602090815260408083206001600160a01b03871680855290835292819020805460ff191686151590811790915590519081529192917f17307eab39ab6107e8899845ad3d59bd9653f200f220920489ca2b5937696c31910160405180910390a35050565b6106508484846103f7565b6001600160a01b0383163b156106805761066c8484848461093e565b610680576106806368d2bf6b60e11b61074c565b50505050565b60606106918261070a565b6106a5576106a5630a14c4b560e41b61074c565b5f6106ba60408051602081019091525f815290565b905080515f036106d85760405180602001604052805f815250610703565b806106e284610a1c565b6040516020016106f3929190610d20565b6040516020818303038152906040525b9392505050565b5f8054821015610747575f5b505f828152600460205260408120549081900361073d5761073683610d4e565b9250610716565b600160e01b161590505b919050565b805f5260045ffd5b5f61075e83610570565b90508180156107765750336001600160a01b03821614155b156107995761078581336102a0565b610799576107996367d9dca160e11b61074c565b5f8381526006602052604080822080546001600160a01b0319166001600160a01b0388811691821790925591518693918516917f8c5be1e5ebec7d5bd14f71427d1e84f3dd0314c0f7b2291e5b200ac8c7c3b92591a450505050565b5f81815260046020526040902054805f03610862575f54821061082257610822636f96cda160e11b61074c565b5b505f19015f81815260046020526040902054801561082357600160e01b81165f0361084d57919050565b61085d636f96cda160e11b61074c565b610823565b600160e01b81165f0361087457919050565b610747636f96cda160e11b61074c565b5f80549082900361089f5761089f63b562e8dd60e01b61074c565b5f8181526004602090815260408083206001600160a01b0387164260a01b6001881460e11b178117909155808452600590925282208054680100000000000000018602019055908190036108fc576108fc622e076360e81b61074c565b818301825b80835f7fddf252ad1be2c89b69c2b068fc378daa952ba7f163c4a11628f55a4df523b3ef5f80a481816001019150810361090157505f5550505050565b604051630a85bd0160e11b81525f906001600160a01b0385169063150b7a0290610972903390899088908890600401610d6f565b6020604051808303815f875af19250505080156109ac575060408051601f3d908101601f191682019092526109a991810190610dab565b60015b6109ff573d8080156109d9576040519150601f19603f3d011682016040523d82523d5f602084013e6109de565b606091505b5080515f036109f7576109f76368d2bf6b60e11b61074c565b805181602001fd5b6001600160e01b031916630a85bd0160e11b149050949350505050565b606060a06040510180604052602081039150505f815280825b600183039250600a81066030018353600a900480610a355750819003601f19909101908152919050565b6001600160e01b0319811681146105d7575f80fd5b5f60208284031215610a84575f80fd5b813561070381610a5f565b5f5b83811015610aa9578181015183820152602001610a91565b50505f910152565b5f8151808452610ac8816020860160208601610a8f565b601f01601f19169290920160200192915050565b602081525f6107036020830184610ab1565b5f60208284031215610afe575f80fd5b5035919050565b80356001600160a01b0381168114610747575f80fd5b5f8060408385031215610b2c575f80fd5b610b3583610b05565b946020939093013593505050565b5f805f60608486031215610b55575f80fd5b610b5e84610b05565b9250610b6c60208501610b05565b9150604084013590509250925092565b5f60208284031215610b8c575f80fd5b61070382610b05565b5f8060408385031215610ba6575f80fd5b610baf83610b05565b915060208301358015158114610bc3575f80fd5b809150509250929050565b634e487b7160e01b5f52604160045260245ffd5b5f805f8060808587031215610bf5575f80fd5b610bfe85610b05565b9350610c0c60208601610b05565b925060408501359150606085013567ffffffffffffffff80821115610c2f575f80fd5b818701915087601f830112610c42575f80fd5b813581811115610c5457610c54610bce565b604051601f8201601f19908116603f01168101908382118183101715610c7c57610c7c610bce565b816040528281528a6020848701011115610c94575f80fd5b826020860160208301375f60208483010152809550505050505092959194509250565b5f8060408385031215610cc8575f80fd5b610cd183610b05565b9150610cdf60208401610b05565b90509250929050565b600181811c90821680610cfc57607f821691505b602082108103610d1a57634e487b7160e01b5f52602260045260245ffd5b50919050565b5f8351610d31818460208801610a8f565b835190830190610d45818360208801610a8f565b01949350505050565b5f81610d6857634e487b7160e01b5f52601160045260245ffd5b505f190190565b6001600160a01b03858116825284166020820152604081018390526080606082018190525f90610da190830184610ab1565b9695505050505050565b5f60208284031215610dbb575f80fd5b815161070381610a5f56fea2646970667358221220d16d105a1a6462aabb685d11738344b52ced708f983eedc0f20ee079e70d3d0264736f6c63430008180033",
    "sourcePath": "/Users/ishtiaqahmed/Desktop/basicERC721A/contracts/BasicERC721A.sol",
    "compiler": {
        "name": "solc",
        "version": "0.8.24+commit.e11b9ed9"
    },
    "functionHashes": {
        "approve(address,uint256)": "095ea7b3",
        "balanceOf(address)": "70a08231",
        "getApproved(uint256)": "081812fc",
        "isApprovedForAll(address,address)": "e985e9c5",
        "mint(uint256)": "a0712d68",
        "name()": "06fdde03",
        "ownerOf(uint256)": "6352211e",
        "safeTransferFrom(address,address,uint256)": "42842e0e",
        "safeTransferFrom(address,address,uint256,bytes)": "b88d4fde",
        "setApprovalForAll(address,bool)": "a22cb465",
        "supportsInterface(bytes4)": "01ffc9a7",
        "symbol()": "95d89b41",
        "tokenURI(uint256)": "c87b56dd",
        "totalSupply()": "18160ddd",
        "transferFrom(address,address,uint256)": "23b872dd"
    },
    "gasEstimates": {
        "creation": {
            "codeDepositCost": "716000",
            "executionCost": "infinite",
            "totalCost": "infinite"
        },
        "external": {
            "approve(address,uint256)": "infinite",
            "balanceOf(address)": "2636",
            "getApproved(uint256)": "infinite",
            "isApprovedForAll(address,address)": "infinite",
            "mint(uint256)": "infinite",
            "name()": "infinite",
            "ownerOf(uint256)": "infinite",
            "safeTransferFrom(address,address,uint256)": "infinite",
            "safeTransferFrom(address,address,uint256,bytes)": "infinite",
            "setApprovalForAll(address,bool)": "26604",
            "supportsInterface(bytes4)": "531",
            "symbol()": "infinite",
            "tokenURI(uint256)": "infinite",
            "totalSupply()": "4430",
            "transferFrom(address,address,uint256)": "infinite"
        }
    }
}